{
  "abi": [
    {
      "inputs": [
        {
          "internalType": "string",
          "name": "_name",
          "type": "string"
        },
        {
          "internalType": "string",
          "name": "_symbol",
          "type": "string"
        }
      ],
      "stateMutability": "nonpayable",
      "type": "constructor"
    },
    {
      "inputs": [],
      "name": "CallerIsNotEOA",
      "type": "error"
    },
    {
      "inputs": [],
      "name": "InssuficientFunds",
      "type": "error"
    },
    {
      "inputs": [],
      "name": "MaxPerWalletReached",
      "type": "error"
    },
    {
      "inputs": [],
      "name": "MaxSupplyReached",
      "type": "error"
    },
    {
      "inputs": [],
      "name": "MintNotStarted",
      "type": "error"
    },
    {
      "inputs": [],
      "name": "NonexistentToken",
      "type": "error"
    },
    {
      "inputs": [],
      "name": "RentalNotStarted",
      "type": "error"
    },
    {
      "anonymous": false,
      "inputs": [
        {
          "indexed": true,
          "internalType": "address",
          "name": "owner",
          "type": "address"
        },
        {
          "indexed": true,
          "internalType": "address",
          "name": "approved",
          "type": "address"
        },
        {
          "indexed": true,
          "internalType": "uint256",
          "name": "tokenId",
          "type": "uint256"
        }
      ],
      "name": "Approval",
      "type": "event"
    },
    {
      "anonymous": false,
      "inputs": [
        {
          "indexed": true,
          "internalType": "address",
          "name": "owner",
          "type": "address"
        },
        {
          "indexed": true,
          "internalType": "address",
          "name": "operator",
          "type": "address"
        },
        {
          "indexed": false,
          "internalType": "bool",
          "name": "approved",
          "type": "bool"
        }
      ],
      "name": "ApprovalForAll",
      "type": "event"
    },
    {
      "anonymous": false,
      "inputs": [
        {
          "indexed": true,
          "internalType": "address",
          "name": "previousOwner",
          "type": "address"
        },
        {
          "indexed": true,
          "internalType": "address",
          "name": "newOwner",
          "type": "address"
        }
      ],
      "name": "OwnershipTransferred",
      "type": "event"
    },
    {
      "anonymous": false,
      "inputs": [
        {
          "indexed": true,
          "internalType": "address",
          "name": "from",
          "type": "address"
        },
        {
          "indexed": true,
          "internalType": "address",
          "name": "to",
          "type": "address"
        },
        {
          "indexed": true,
          "internalType": "uint256",
          "name": "tokenId",
          "type": "uint256"
        }
      ],
      "name": "Transfer",
      "type": "event"
    },
    {
      "anonymous": false,
      "inputs": [
        {
          "indexed": true,
          "internalType": "uint256",
          "name": "tokenId",
          "type": "uint256"
        },
        {
          "indexed": true,
          "internalType": "address",
          "name": "user",
          "type": "address"
        },
        {
          "indexed": false,
          "internalType": "uint64",
          "name": "expires",
          "type": "uint64"
        }
      ],
      "name": "UpdateUser",
      "type": "event"
    },
    {
      "inputs": [
        {
          "internalType": "address",
          "name": "to",
          "type": "address"
        },
        {
          "internalType": "uint256",
          "name": "tokenId",
          "type": "uint256"
        }
      ],
      "name": "approve",
      "outputs": [],
      "stateMutability": "nonpayable",
      "type": "function"
    },
    {
      "inputs": [
        {
          "internalType": "address",
          "name": "owner",
          "type": "address"
        }
      ],
      "name": "balanceOf",
      "outputs": [
        {
          "internalType": "uint256",
          "name": "",
          "type": "uint256"
        }
      ],
      "stateMutability": "view",
      "type": "function"
    },
    {
      "inputs": [
        {
          "internalType": "uint256",
          "name": "tokenId",
          "type": "uint256"
        }
      ],
      "name": "getApproved",
      "outputs": [
        {
          "internalType": "address",
          "name": "",
          "type": "address"
        }
      ],
      "stateMutability": "view",
      "type": "function"
    },
    {
      "inputs": [],
      "name": "getCurrentBlock",
      "outputs": [
        {
          "internalType": "uint256",
          "name": "",
          "type": "uint256"
        }
      ],
      "stateMutability": "view",
      "type": "function"
    },
    {
      "inputs": [],
      "name": "getPrice",
      "outputs": [
        {
          "internalType": "uint256",
          "name": "",
          "type": "uint256"
        }
      ],
      "stateMutability": "view",
      "type": "function"
    },
    {
      "inputs": [
        {
          "internalType": "address",
          "name": "owner",
          "type": "address"
        },
        {
          "internalType": "address",
          "name": "operator",
          "type": "address"
        }
      ],
      "name": "isApprovedForAll",
      "outputs": [
        {
          "internalType": "bool",
          "name": "",
          "type": "bool"
        }
      ],
      "stateMutability": "view",
      "type": "function"
    },
    {
      "inputs": [],
      "name": "maxSupply",
      "outputs": [
        {
          "internalType": "uint256",
          "name": "",
          "type": "uint256"
        }
      ],
      "stateMutability": "view",
      "type": "function"
    },
    {
      "inputs": [],
      "name": "mintStarted",
      "outputs": [
        {
          "internalType": "bool",
          "name": "",
          "type": "bool"
        }
      ],
      "stateMutability": "view",
      "type": "function"
    },
    {
      "inputs": [
        {
          "internalType": "uint256",
          "name": "quantity",
          "type": "uint256"
        }
      ],
      "name": "mintToken",
      "outputs": [],
      "stateMutability": "payable",
      "type": "function"
    },
    {
      "inputs": [],
      "name": "name",
      "outputs": [
        {
          "internalType": "string",
          "name": "",
          "type": "string"
        }
      ],
      "stateMutability": "view",
      "type": "function"
    },
    {
      "inputs": [],
      "name": "owner",
      "outputs": [
        {
          "internalType": "address",
          "name": "",
          "type": "address"
        }
      ],
      "stateMutability": "view",
      "type": "function"
    },
    {
      "inputs": [
        {
          "internalType": "address",
          "name": "receiver",
          "type": "address"
        },
        {
          "internalType": "uint256",
          "name": "quantity",
          "type": "uint256"
        }
      ],
      "name": "ownerMint",
      "outputs": [],
      "stateMutability": "nonpayable",
      "type": "function"
    },
    {
      "inputs": [
        {
          "internalType": "uint256",
          "name": "tokenId",
          "type": "uint256"
        }
      ],
      "name": "ownerOf",
      "outputs": [
        {
          "internalType": "address",
          "name": "",
          "type": "address"
        }
      ],
      "stateMutability": "view",
      "type": "function"
    },
    {
      "inputs": [],
      "name": "renounceOwnership",
      "outputs": [],
      "stateMutability": "nonpayable",
      "type": "function"
    },
    {
      "inputs": [],
      "name": "rentalStarted",
      "outputs": [
        {
          "internalType": "bool",
          "name": "",
          "type": "bool"
        }
      ],
      "stateMutability": "view",
      "type": "function"
    },
    {
      "inputs": [
        {
          "internalType": "address",
          "name": "from",
          "type": "address"
        },
        {
          "internalType": "address",
          "name": "to",
          "type": "address"
        },
        {
          "internalType": "uint256",
          "name": "tokenId",
          "type": "uint256"
        }
      ],
      "name": "safeTransferFrom",
      "outputs": [],
      "stateMutability": "nonpayable",
      "type": "function"
    },
    {
      "inputs": [
        {
          "internalType": "address",
          "name": "from",
          "type": "address"
        },
        {
          "internalType": "address",
          "name": "to",
          "type": "address"
        },
        {
          "internalType": "uint256",
          "name": "tokenId",
          "type": "uint256"
        },
        {
          "internalType": "bytes",
          "name": "data",
          "type": "bytes"
        }
      ],
      "name": "safeTransferFrom",
      "outputs": [],
      "stateMutability": "nonpayable",
      "type": "function"
    },
    {
      "inputs": [
        {
          "internalType": "address",
          "name": "operator",
          "type": "address"
        },
        {
          "internalType": "bool",
          "name": "approved",
          "type": "bool"
        }
      ],
      "name": "setApprovalForAll",
      "outputs": [],
      "stateMutability": "nonpayable",
      "type": "function"
    },
    {
      "inputs": [
        {
          "internalType": "uint256",
          "name": "_price",
          "type": "uint256"
        }
      ],
      "name": "setPrice",
      "outputs": [],
      "stateMutability": "nonpayable",
      "type": "function"
    },
    {
      "inputs": [
        {
          "internalType": "string",
          "name": "_uri",
          "type": "string"
        }
      ],
      "name": "setURI",
      "outputs": [],
      "stateMutability": "nonpayable",
      "type": "function"
    },
    {
      "inputs": [
        {
          "internalType": "uint256",
          "name": "tokenId",
          "type": "uint256"
        },
        {
          "internalType": "address",
          "name": "user",
          "type": "address"
        },
        {
          "internalType": "uint64",
          "name": "expires",
          "type": "uint64"
        }
      ],
      "name": "setUser",
      "outputs": [],
      "stateMutability": "nonpayable",
      "type": "function"
    },
    {
      "inputs": [
        {
          "internalType": "bytes4",
          "name": "interfaceId",
          "type": "bytes4"
        }
      ],
      "name": "supportsInterface",
      "outputs": [
        {
          "internalType": "bool",
          "name": "",
          "type": "bool"
        }
      ],
      "stateMutability": "view",
      "type": "function"
    },
    {
      "inputs": [],
      "name": "symbol",
      "outputs": [
        {
          "internalType": "string",
          "name": "",
          "type": "string"
        }
      ],
      "stateMutability": "view",
      "type": "function"
    },
    {
      "inputs": [],
      "name": "toggleMint",
      "outputs": [],
      "stateMutability": "nonpayable",
      "type": "function"
    },
    {
      "inputs": [],
      "name": "toggleRent",
      "outputs": [],
      "stateMutability": "nonpayable",
      "type": "function"
    },
    {
      "inputs": [
        {
          "internalType": "uint256",
          "name": "_tokenId",
          "type": "uint256"
        }
      ],
      "name": "tokenURI",
      "outputs": [
        {
          "internalType": "string",
          "name": "",
          "type": "string"
        }
      ],
      "stateMutability": "view",
      "type": "function"
    },
    {
      "inputs": [],
      "name": "totalSupply",
      "outputs": [
        {
          "internalType": "uint256",
          "name": "",
          "type": "uint256"
        }
      ],
      "stateMutability": "view",
      "type": "function"
    },
    {
      "inputs": [
        {
          "internalType": "address",
          "name": "from",
          "type": "address"
        },
        {
          "internalType": "address",
          "name": "to",
          "type": "address"
        },
        {
          "internalType": "uint256",
          "name": "tokenId",
          "type": "uint256"
        }
      ],
      "name": "transferFrom",
      "outputs": [],
      "stateMutability": "nonpayable",
      "type": "function"
    },
    {
      "inputs": [
        {
          "internalType": "address",
          "name": "newOwner",
          "type": "address"
        }
      ],
      "name": "transferOwnership",
      "outputs": [],
      "stateMutability": "nonpayable",
      "type": "function"
    },
    {
      "inputs": [
        {
          "internalType": "uint256",
          "name": "tokenId",
          "type": "uint256"
        }
      ],
      "name": "userExpires",
      "outputs": [
        {
          "internalType": "uint256",
          "name": "",
          "type": "uint256"
        }
      ],
      "stateMutability": "view",
      "type": "function"
    },
    {
      "inputs": [
        {
          "internalType": "uint256",
          "name": "tokenId",
          "type": "uint256"
        }
      ],
      "name": "userOf",
      "outputs": [
        {
          "internalType": "address",
          "name": "",
          "type": "address"
        }
      ],
      "stateMutability": "view",
      "type": "function"
    },
    {
      "inputs": [],
      "name": "withdrawFunds",
      "outputs": [],
      "stateMutability": "nonpayable",
      "type": "function"
    }
  ],
  "bytecode": {
    "object": "0x6080604052612710600b556000600c556000600d553480156200002157600080fd5b50604051620025ea380380620025ea8339810160408190526200004491620001ac565b818181816000620000568382620002a5565b506001620000658282620002a5565b5050505050620000846200007e6200009160201b60201c565b62000095565b5050600160085562000371565b3390565b600780546001600160a01b038381166001600160a01b0319831681179093556040519116919082907f8be0079c531659141344cd1fd0a4f28419497f9722a3daafe3b4186f6b6457e090600090a35050565b634e487b7160e01b600052604160045260246000fd5b600082601f8301126200010f57600080fd5b81516001600160401b03808211156200012c576200012c620000e7565b604051601f8301601f19908116603f01168101908282118183101715620001575762000157620000e7565b816040528381526020925086838588010111156200017457600080fd5b600091505b8382101562000198578582018301518183018401529082019062000179565b600093810190920192909252949350505050565b60008060408385031215620001c057600080fd5b82516001600160401b0380821115620001d857600080fd5b620001e686838701620000fd565b93506020850151915080821115620001fd57600080fd5b506200020c85828601620000fd565b9150509250929050565b600181811c908216806200022b57607f821691505b6020821081036200024c57634e487b7160e01b600052602260045260246000fd5b50919050565b601f821115620002a057600081815260208120601f850160051c810160208610156200027b5750805b601f850160051c820191505b818110156200029c5782815560010162000287565b5050505b505050565b81516001600160401b03811115620002c157620002c1620000e7565b620002d981620002d2845462000216565b8462000252565b602080601f831160018114620003115760008415620002f85750858301515b600019600386901b1c1916600185901b1785556200029c565b600085815260208120601f198616915b82811015620003425788860151825594840194600190910190840162000321565b5085821015620003615787850151600019600388901b60f8161c191681555b5050505050600190811b01905550565b61226980620003816000396000f3fe6080604052600436106101e35760003560e01c80638fc88c4811610102578063c634d03211610095578063e030565e11610064578063e030565e14610552578063e2af381714610572578063e985e9c514610587578063f2fde38b146105d057600080fd5b8063c634d032146104f4578063c87b56dd14610507578063d3dd5fe014610527578063d5abeb011461053c57600080fd5b8063a22cb465116100d1578063a22cb4651461047a578063a9722cf31461049a578063b88d4fde146104b4578063c2f1f14a146104d457600080fd5b80638fc88c48146103f257806391b7f5ed1461043057806395d89b411461045057806398d5fdca1461046557600080fd5b806342842e0e1161017a57806370a082311161014957806370a0823114610380578063715018a6146103a05780637fc2a9b9146103b55780638da5cb5b146103d457600080fd5b806342842e0e1461030d578063484b973c1461032d5780636352211e1461034d578063672d5d3b1461036d57600080fd5b8063095ea7b3116101b6578063095ea7b31461029957806318160ddd146102b957806323b872dd146102d857806324600fc3146102f857600080fd5b806301ffc9a7146101e857806302fe53051461021d57806306fdde031461023f578063081812fc14610261575b600080fd5b3480156101f457600080fd5b50610208610203366004611c41565b6105f0565b60405190151581526020015b60405180910390f35b34801561022957600080fd5b5061023d610238366004611cf1565b610634565b005b34801561024b57600080fd5b5061025461064c565b6040516102149190611d8a565b34801561026d57600080fd5b5061028161027c366004611d9d565b6106de565b6040516001600160a01b039091168152602001610214565b3480156102a557600080fd5b5061023d6102b4366004611dcd565b610705565b3480156102c557600080fd5b50600d545b604051908152602001610214565b3480156102e457600080fd5b5061023d6102f3366004611df7565b610859565b34801561030457600080fd5b5061023d6108d0565b34801561031957600080fd5b5061023d610328366004611df7565b610985565b34801561033957600080fd5b5061023d610348366004611dcd565b6109a0565b34801561035957600080fd5b50610281610368366004611d9d565b610a1a565b34801561037957600080fd5b50426102ca565b34801561038c57600080fd5b506102ca61039b366004611e33565b610a7f565b3480156103ac57600080fd5b5061023d610b19565b3480156103c157600080fd5b50600a5461020890610100900460ff1681565b3480156103e057600080fd5b506007546001600160a01b0316610281565b3480156103fe57600080fd5b506102ca61040d366004611d9d565b600090815260066020526040902054600160a01b900467ffffffffffffffff1690565b34801561043c57600080fd5b5061023d61044b366004611d9d565b610b2b565b34801561045c57600080fd5b50610254610b38565b34801561047157600080fd5b50600c546102ca565b34801561048657600080fd5b5061023d610495366004611e4e565b610b47565b3480156104a657600080fd5b50600a546102089060ff1681565b3480156104c057600080fd5b5061023d6104cf366004611e8a565b610b52565b3480156104e057600080fd5b506102816104ef366004611d9d565b610bd0565b61023d610502366004611d9d565b610c20565b34801561051357600080fd5b50610254610522366004611d9d565b610d58565b34801561053357600080fd5b5061023d610dc8565b34801561054857600080fd5b506102ca600b5481565b34801561055e57600080fd5b5061023d61056d366004611f06565b610de4565b34801561057e57600080fd5b5061023d610ee2565b34801561059357600080fd5b506102086105a2366004611f53565b6001600160a01b03918216600090815260056020908152604080832093909416825291909152205460ff1690565b3480156105dc57600080fd5b5061023d6105eb366004611e33565b610f07565b60006001600160e01b031982167fad092b5c00000000000000000000000000000000000000000000000000000000148061062e575061062e82610f97565b92915050565b61063c611032565b6009610648828261200e565b5050565b60606000805461065b90611f86565b80601f016020809104026020016040519081016040528092919081815260200182805461068790611f86565b80156106d45780601f106106a9576101008083540402835291602001916106d4565b820191906000526020600020905b8154815290600101906020018083116106b757829003601f168201915b5050505050905090565b60006106e98261108c565b506000908152600460205260409020546001600160a01b031690565b600061071082610a1a565b9050806001600160a01b0316836001600160a01b03160361079e5760405162461bcd60e51b815260206004820152602160248201527f4552433732313a20617070726f76616c20746f2063757272656e74206f776e6560448201527f720000000000000000000000000000000000000000000000000000000000000060648201526084015b60405180910390fd5b336001600160a01b03821614806107d857506001600160a01b038116600090815260056020908152604080832033845290915290205460ff165b61084a5760405162461bcd60e51b815260206004820152603d60248201527f4552433732313a20617070726f76652063616c6c6572206973206e6f7420746f60448201527f6b656e206f776e6572206f7220617070726f76656420666f7220616c6c0000006064820152608401610795565b61085483836110f0565b505050565b610863338261116b565b6108c55760405162461bcd60e51b815260206004820152602d60248201527f4552433732313a2063616c6c6572206973206e6f7420746f6b656e206f776e6560448201526c1c881bdc88185c1c1c9bdd9959609a1b6064820152608401610795565b6108548383836111ea565b6108d8611032565b6108e06113fd565b604051600090339047908381818185875af1925050503d8060008114610922576040519150601f19603f3d011682016040523d82523d6000602084013e610927565b606091505b50509050806109785760405162461bcd60e51b815260206004820152600f60248201527f5472616e73666572206661696c656400000000000000000000000000000000006044820152606401610795565b506109836001600855565b565b61085483838360405180602001604052806000815250610b52565b6109a8611032565b600b54600d546109b890836120e4565b11156109d75760405163d05cb60960e01b815260040160405180910390fd5b60005b81811015610854576001600d60008282546109f591906120e4565b92505081905550610a0883600d54611456565b80610a12816120f7565b9150506109da565b6000818152600260205260408120546001600160a01b03168061062e5760405162461bcd60e51b815260206004820152601860248201527f4552433732313a20696e76616c696420746f6b656e20494400000000000000006044820152606401610795565b60006001600160a01b038216610afd5760405162461bcd60e51b815260206004820152602960248201527f4552433732313a2061646472657373207a65726f206973206e6f74206120766160448201527f6c6964206f776e657200000000000000000000000000000000000000000000006064820152608401610795565b506001600160a01b031660009081526003602052604090205490565b610b21611032565b6109836000611470565b610b33611032565b600c55565b60606001805461065b90611f86565b6106483383836114cf565b610b5c338361116b565b610bbe5760405162461bcd60e51b815260206004820152602d60248201527f4552433732313a2063616c6c6572206973206e6f7420746f6b656e206f776e6560448201526c1c881bdc88185c1c1c9bdd9959609a1b6064820152608401610795565b610bca8484848461159d565b50505050565b60008181526006602052604081205442600160a01b90910467ffffffffffffffff1610610c1357506000908152600660205260409020546001600160a01b031690565b506000919050565b919050565b600a5460ff161515600114610c61576040517f06290e4e00000000000000000000000000000000000000000000000000000000815260040160405180910390fd5b336000908152600e6020526040902054600311610caa576040517fd330f98500000000000000000000000000000000000000000000000000000000815260040160405180910390fd5b600b54600d54610cbb9060016120e4565b1115610cda5760405163d05cb60960e01b815260040160405180910390fd5b600c54341015610d16576040517f18a302e700000000000000000000000000000000000000000000000000000000815260040160405180910390fd5b60005b81811015610648576001600d6000828254610d3491906120e4565b90915550610d46905033600d5461161b565b80610d50816120f7565b915050610d19565b6060600d54821115610d96576040517fb1d04f0800000000000000000000000000000000000000000000000000000000815260040160405180910390fd5b6009610da1836117c1565b604051602001610db2929190612110565b6040516020818303038152906040529050919050565b610dd0611032565b600a805460ff19811660ff90911615179055565b610dee338461116b565b610e605760405162461bcd60e51b815260206004820152603260248201527f455243343930373a207472616e736665722063616c6c6572206973206e6f742060448201527f6f776e6572206e6f7220617070726f76656400000000000000000000000000006064820152608401610795565b60008381526006602090815260409182902080546001600160a01b0386166001600160e01b03199091168117600160a01b67ffffffffffffffff871690810291909117835593519384529092909186917f4e06b4e7000e659094299b3533b47b6aa8ad048e95e872d23d1f4ee55af89cfe91015b60405180910390a350505050565b610eea611032565b600a805461ff001981166101009182900460ff1615909102179055565b610f0f611032565b6001600160a01b038116610f8b5760405162461bcd60e51b815260206004820152602660248201527f4f776e61626c653a206e6577206f776e657220697320746865207a65726f206160448201527f64647265737300000000000000000000000000000000000000000000000000006064820152608401610795565b610f9481611470565b50565b60006001600160e01b031982167f80ac58cd000000000000000000000000000000000000000000000000000000001480610ffa57506001600160e01b031982167f5b5e139f00000000000000000000000000000000000000000000000000000000145b8061062e57507f01ffc9a7000000000000000000000000000000000000000000000000000000006001600160e01b031983161461062e565b6007546001600160a01b031633146109835760405162461bcd60e51b815260206004820181905260248201527f4f776e61626c653a2063616c6c6572206973206e6f7420746865206f776e65726044820152606401610795565b6000818152600260205260409020546001600160a01b0316610f945760405162461bcd60e51b815260206004820152601860248201527f4552433732313a20696e76616c696420746f6b656e20494400000000000000006044820152606401610795565b6000818152600460205260409020805473ffffffffffffffffffffffffffffffffffffffff19166001600160a01b038416908117909155819061113282610a1a565b6001600160a01b03167f8c5be1e5ebec7d5bd14f71427d1e84f3dd0314c0f7b2291e5b200ac8c7c3b92560405160405180910390a45050565b60008061117783610a1a565b9050806001600160a01b0316846001600160a01b031614806111be57506001600160a01b0380821660009081526005602090815260408083209388168352929052205460ff165b806111e25750836001600160a01b03166111d7846106de565b6001600160a01b0316145b949350505050565b826001600160a01b03166111fd82610a1a565b6001600160a01b0316146112615760405162461bcd60e51b815260206004820152602560248201527f4552433732313a207472616e736665722066726f6d20696e636f72726563742060448201526437bbb732b960d91b6064820152608401610795565b6001600160a01b0382166112dc5760405162461bcd60e51b8152602060048201526024808201527f4552433732313a207472616e7366657220746f20746865207a65726f2061646460448201527f72657373000000000000000000000000000000000000000000000000000000006064820152608401610795565b6112e98383836001611861565b826001600160a01b03166112fc82610a1a565b6001600160a01b0316146113605760405162461bcd60e51b815260206004820152602560248201527f4552433732313a207472616e736665722066726f6d20696e636f72726563742060448201526437bbb732b960d91b6064820152608401610795565b6000818152600460209081526040808320805473ffffffffffffffffffffffffffffffffffffffff199081169091556001600160a01b0387811680865260038552838620805460001901905590871680865283862080546001019055868652600290945282852080549092168417909155905184937fddf252ad1be2c89b69c2b068fc378daa952ba7f163c4a11628f55a4df523b3ef91a4505050565b60026008540361144f5760405162461bcd60e51b815260206004820152601f60248201527f5265656e7472616e637947756172643a207265656e7472616e742063616c6c006044820152606401610795565b6002600855565b6106488282604051806020016040528060008152506118f7565b600780546001600160a01b0383811673ffffffffffffffffffffffffffffffffffffffff19831681179093556040519116919082907f8be0079c531659141344cd1fd0a4f28419497f9722a3daafe3b4186f6b6457e090600090a35050565b816001600160a01b0316836001600160a01b0316036115305760405162461bcd60e51b815260206004820152601960248201527f4552433732313a20617070726f766520746f2063616c6c6572000000000000006044820152606401610795565b6001600160a01b03838116600081815260056020908152604080832094871680845294825291829020805460ff191686151590811790915591519182527f17307eab39ab6107e8899845ad3d59bd9653f200f220920489ca2b5937696c31910160405180910390a3505050565b6115a88484846111ea565b6115b484848484611975565b610bca5760405162461bcd60e51b815260206004820152603260248201527f4552433732313a207472616e7366657220746f206e6f6e20455243373231526560448201527131b2b4bb32b91034b6b83632b6b2b73a32b960711b6064820152608401610795565b6001600160a01b0382166116715760405162461bcd60e51b815260206004820181905260248201527f4552433732313a206d696e7420746f20746865207a65726f20616464726573736044820152606401610795565b6000818152600260205260409020546001600160a01b0316156116d65760405162461bcd60e51b815260206004820152601c60248201527f4552433732313a20746f6b656e20616c7265616479206d696e746564000000006044820152606401610795565b6116e4600083836001611861565b6000818152600260205260409020546001600160a01b0316156117495760405162461bcd60e51b815260206004820152601c60248201527f4552433732313a20746f6b656e20616c7265616479206d696e746564000000006044820152606401610795565b6001600160a01b0382166000818152600360209081526040808320805460010190558483526002909152808220805473ffffffffffffffffffffffffffffffffffffffff19168417905551839291907fddf252ad1be2c89b69c2b068fc378daa952ba7f163c4a11628f55a4df523b3ef908290a45050565b606060006117ce83611ac1565b600101905060008167ffffffffffffffff8111156117ee576117ee611c65565b6040519080825280601f01601f191660200182016040528015611818576020820181803683370190505b5090508181016020015b600019017f3031323334353637383961626364656600000000000000000000000000000000600a86061a8153600a850494508461182257509392505050565b61186d84848484611ba3565b826001600160a01b0316846001600160a01b0316141580156118a557506000828152600660205260409020546001600160a01b031615155b15610bca57600082815260066020908152604080832080546001600160e01b03191690555182815284917f4e06b4e7000e659094299b3533b47b6aa8ad048e95e872d23d1f4ee55af89cfe9101610ed4565b611901838361161b565b61190e6000848484611975565b6108545760405162461bcd60e51b815260206004820152603260248201527f4552433732313a207472616e7366657220746f206e6f6e20455243373231526560448201527131b2b4bb32b91034b6b83632b6b2b73a32b960711b6064820152608401610795565b60006001600160a01b0384163b15611ab657604051630a85bd0160e11b81526001600160a01b0385169063150b7a02906119b99033908990889088906004016121c7565b6020604051808303816000875af19250505080156119f4575060408051601f3d908101601f191682019092526119f191810190612203565b60015b611a9c573d808015611a22576040519150601f19603f3d011682016040523d82523d6000602084013e611a27565b606091505b508051600003611a945760405162461bcd60e51b815260206004820152603260248201527f4552433732313a207472616e7366657220746f206e6f6e20455243373231526560448201527131b2b4bb32b91034b6b83632b6b2b73a32b960711b6064820152608401610795565b805181602001fd5b6001600160e01b031916630a85bd0160e11b1490506111e2565b506001949350505050565b6000807a184f03e93ff9f4daa797ed6e38ed64bf6a1f0100000000000000008310611b0a577a184f03e93ff9f4daa797ed6e38ed64bf6a1f010000000000000000830492506040015b6d04ee2d6d415b85acef81000000008310611b36576d04ee2d6d415b85acef8100000000830492506020015b662386f26fc100008310611b5457662386f26fc10000830492506010015b6305f5e1008310611b6c576305f5e100830492506008015b6127108310611b8057612710830492506004015b60648310611b92576064830492506002015b600a831061062e5760010192915050565b6001811115610bca576001600160a01b03841615611be9576001600160a01b03841660009081526003602052604081208054839290611be3908490612220565b90915550505b6001600160a01b03831615610bca576001600160a01b03831660009081526003602052604081208054839290611c209084906120e4565b909155505050505050565b6001600160e01b031981168114610f9457600080fd5b600060208284031215611c5357600080fd5b8135611c5e81611c2b565b9392505050565b634e487b7160e01b600052604160045260246000fd5b600067ffffffffffffffff80841115611c9657611c96611c65565b604051601f8501601f19908116603f01168101908282118183101715611cbe57611cbe611c65565b81604052809350858152868686011115611cd757600080fd5b858560208301376000602087830101525050509392505050565b600060208284031215611d0357600080fd5b813567ffffffffffffffff811115611d1a57600080fd5b8201601f81018413611d2b57600080fd5b6111e284823560208401611c7b565b60005b83811015611d55578181015183820152602001611d3d565b50506000910152565b60008151808452611d76816020860160208601611d3a565b601f01601f19169290920160200192915050565b602081526000611c5e6020830184611d5e565b600060208284031215611daf57600080fd5b5035919050565b80356001600160a01b0381168114610c1b57600080fd5b60008060408385031215611de057600080fd5b611de983611db6565b946020939093013593505050565b600080600060608486031215611e0c57600080fd5b611e1584611db6565b9250611e2360208501611db6565b9150604084013590509250925092565b600060208284031215611e4557600080fd5b611c5e82611db6565b60008060408385031215611e6157600080fd5b611e6a83611db6565b915060208301358015158114611e7f57600080fd5b809150509250929050565b60008060008060808587031215611ea057600080fd5b611ea985611db6565b9350611eb760208601611db6565b925060408501359150606085013567ffffffffffffffff811115611eda57600080fd5b8501601f81018713611eeb57600080fd5b611efa87823560208401611c7b565b91505092959194509250565b600080600060608486031215611f1b57600080fd5b83359250611f2b60208501611db6565b9150604084013567ffffffffffffffff81168114611f4857600080fd5b809150509250925092565b60008060408385031215611f6657600080fd5b611f6f83611db6565b9150611f7d60208401611db6565b90509250929050565b600181811c90821680611f9a57607f821691505b602082108103611fba57634e487b7160e01b600052602260045260246000fd5b50919050565b601f82111561085457600081815260208120601f850160051c81016020861015611fe75750805b601f850160051c820191505b8181101561200657828155600101611ff3565b505050505050565b815167ffffffffffffffff81111561202857612028611c65565b61203c816120368454611f86565b84611fc0565b602080601f83116001811461207157600084156120595750858301515b600019600386901b1c1916600185901b178555612006565b600085815260208120601f198616915b828110156120a057888601518255948401946001909101908401612081565b50858210156120be5787850151600019600388901b60f8161c191681555b5050505050600190811b01905550565b634e487b7160e01b600052601160045260246000fd5b8082018082111561062e5761062e6120ce565b600060018201612109576121096120ce565b5060010190565b7f697066733a2f2f000000000000000000000000000000000000000000000000008152600060076000855461214481611f86565b6001828116801561215c5760018114612175576121a8565b60ff1984168887015282151583028801860194506121a8565b8960005260208060002060005b8581101561219d5781548b82018a0152908401908201612182565b505050858389010194505b50505050845191506121be828260208801611d3a565b01949350505050565b60006001600160a01b038087168352808616602084015250836040830152608060608301526121f96080830184611d5e565b9695505050505050565b60006020828403121561221557600080fd5b8151611c5e81611c2b565b8181038181111561062e5761062e6120ce56fea2646970667358221220380224de7defcabc62c95e892056fec12ec8edac23b3bb47f538e8cd11d2356f64736f6c63430008110033",
    "linkReferences": {}
  },
  "methodIdentifiers": {
    "approve(address,uint256)": "095ea7b3",
    "balanceOf(address)": "70a08231",
    "getApproved(uint256)": "081812fc",
    "getCurrentBlock()": "672d5d3b",
    "getPrice()": "98d5fdca",
    "isApprovedForAll(address,address)": "e985e9c5",
    "maxSupply()": "d5abeb01",
    "mintStarted()": "a9722cf3",
    "mintToken(uint256)": "c634d032",
    "name()": "06fdde03",
    "owner()": "8da5cb5b",
    "ownerMint(address,uint256)": "484b973c",
    "ownerOf(uint256)": "6352211e",
    "renounceOwnership()": "715018a6",
    "rentalStarted()": "7fc2a9b9",
    "safeTransferFrom(address,address,uint256)": "42842e0e",
    "safeTransferFrom(address,address,uint256,bytes)": "b88d4fde",
    "setApprovalForAll(address,bool)": "a22cb465",
    "setPrice(uint256)": "91b7f5ed",
    "setURI(string)": "02fe5305",
    "setUser(uint256,address,uint64)": "e030565e",
    "supportsInterface(bytes4)": "01ffc9a7",
    "symbol()": "95d89b41",
    "toggleMint()": "d3dd5fe0",
    "toggleRent()": "e2af3817",
    "tokenURI(uint256)": "c87b56dd",
    "totalSupply()": "18160ddd",
    "transferFrom(address,address,uint256)": "23b872dd",
    "transferOwnership(address)": "f2fde38b",
    "userExpires(uint256)": "8fc88c48",
    "userOf(uint256)": "c2f1f14a",
    "withdrawFunds()": "24600fc3"
  },
  "id": 32
}